:100000000C942A000C9434000C9434000C943400AA
:100010000C9434000C9434000C9434000C94340090
:100020000C9434000C9434000C9434000C94340080
:100030000C9434000C9434000C9434000C94340070
:100040000C9434000C9434000C9434000C94340060
:100050000C94340011241FBECFE5D4E0DEBFCDBF29
:100060000E9441000C9466000C9400008FB5826AD7
:100070008FBD8EB58B618EBD87E391E097BD86BD48
:10008000089580E381BB8FB5826A8FBD8EB58B6189
:100090008EBD87E391E097BD86BD62E170E029E106
:1000A00030E04FE050E07BBD6ABD80E197E2F901AE
:1000B0003197F1F70197D9F75BBD4ABD80E197E22F
:1000C000F9013197F1F70197D9F7EDCFF894FFCF08
:00000001FF
